{"contracts/F1PredictionVulnerable.sol":{"F1PredictionVulnerable":{"abi":[{"anonymous":false,"inputs":[{"indexed":false,"internalType":"address","name":"better","type":"address"},{"indexed":false,"internalType":"uint256","name":"amount","type":"uint256"}],"name":"BetPlaced","type":"event"},{"inputs":[{"internalType":"address","name":"","type":"address"}],"name":"bets","outputs":[{"internalType":"uint256","name":"","type":"uint256"}],"stateMutability":"view","type":"function"},{"inputs":[],"name":"emergencyWithdraw","outputs":[],"stateMutability":"nonpayable","type":"function"},{"inputs":[],"name":"finishRace","outputs":[],"stateMutability":"nonpayable","type":"function"},{"inputs":[],"name":"placeBet","outputs":[],"stateMutability":"payable","type":"function"},{"inputs":[],"name":"raceFinished","outputs":[{"internalType":"bool","name":"","type":"bool"}],"stateMutability":"view","type":"function"},{"inputs":[{"internalType":"uint256","name":"amountOutMin","type":"uint256"}],"name":"swapTokens","outputs":[],"stateMutability":"nonpayable","type":"function"},{"inputs":[],"name":"totalPool","outputs":[{"internalType":"uint256","name":"","type":"uint256"}],"stateMutability":"view","type":"function"}],"evm":{"bytecode":{"linkReferences":{},"object":"608060405234801561001057600080fd5b506106d4806100206000396000f3fe6080604052600436106100705760003560e01c8063dc1b5b3f1161004e578063dc1b5b3f146100f4578063ecfb49a31461010b578063f90f456014610136578063fe784eaa1461014057610070565b806389a78f1a146100755780639917ffa8146100b2578063db2e21bc146100dd575b600080fd5b34801561008157600080fd5b5061009c6004803603810190610097919061042a565b610169565b6040516100a99190610470565b60405180910390f35b3480156100be57600080fd5b506100c7610181565b6040516100d491906104a6565b60405180910390f35b3480156100e957600080fd5b506100f2610194565b005b34801561010057600080fd5b50610109610265565b005b34801561011757600080fd5b50610120610282565b60405161012d9190610470565b60405180910390f35b61013e610288565b005b34801561014c57600080fd5b50610167600480360381019061016291906104ed565b6103c4565b005b60006020528060005260406000206000915090505481565b600260009054906101000a900460ff1681565b60008060003373ffffffffffffffffffffffffffffffffffffffff1673ffffffffffffffffffffffffffffffffffffffff16815260200190815260200160002054905060008060003373ffffffffffffffffffffffffffffffffffffffff1673ffffffffffffffffffffffffffffffffffffffff168152602001908152602001600020819055503373ffffffffffffffffffffffffffffffffffffffff166108fc829081150290604051600060405180830381858888f19350505050158015610261573d6000803e3d6000fd5b5050565b6001600260006101000a81548160ff021916908315150217905550565b60015481565b600260009054906101000a900460ff16156102d8576040517f08c379a00000000000000000000000000000000000000000000000000000000081526004016102cf90610577565b60405180910390fd5b6000341161031b576040517f08c379a0000000000000000000000000000000000000000000000000000000008152600401610312906105e3565b60405180910390fd5b346000803373ffffffffffffffffffffffffffffffffffffffff1673ffffffffffffffffffffffffffffffffffffffff16815260200190815260200160002060008282546103699190610632565b9250508190555034600160008282546103829190610632565b925050819055507f43e08d78302cdf9c94e1ffd293c2a3696139ee41cf3199b6f5eed9c7f6cc609033346040516103ba929190610675565b60405180910390a1565b50565b600080fd5b600073ffffffffffffffffffffffffffffffffffffffff82169050919050565b60006103f7826103cc565b9050919050565b610407816103ec565b811461041257600080fd5b50565b600081359050610424816103fe565b92915050565b6000602082840312156104405761043f6103c7565b5b600061044e84828501610415565b91505092915050565b6000819050919050565b61046a81610457565b82525050565b60006020820190506104856000830184610461565b92915050565b60008115159050919050565b6104a08161048b565b82525050565b60006020820190506104bb6000830184610497565b92915050565b6104ca81610457565b81146104d557600080fd5b50565b6000813590506104e7816104c1565b92915050565b600060208284031215610503576105026103c7565b5b6000610511848285016104d8565b91505092915050565b600082825260208201905092915050565b7f526163652066696e697368656400000000000000000000000000000000000000600082015250565b6000610561600d8361051a565b915061056c8261052b565b602082019050919050565b6000602082019050818103600083015261059081610554565b9050919050565b7f4e65656420746f2062657420736f6d657468696e670000000000000000000000600082015250565b60006105cd60158361051a565b91506105d882610597565b602082019050919050565b600060208201905081810360008301526105fc816105c0565b9050919050565b7f4e487b7100000000000000000000000000000000000000000000000000000000600052601160045260246000fd5b600061063d82610457565b915061064883610457565b92508282019050808211156106605761065f610603565b5b92915050565b61066f816103ec565b82525050565b600060408201905061068a6000830185610666565b6106976020830184610461565b939250505056fea2646970667358221220a8808da02d67911dd289581e0348381a1d9a621d7956cae5c3cbd7da80115f5164736f6c63430008130033","opcodes":"PUSH1 0x80 PUSH1 0x40 MSTORE CALLVALUE DUP1 ISZERO PUSH2 0x10 JUMPI PUSH1 0x0 DUP1 REVERT JUMPDEST POP PUSH2 0x6D4 DUP1 PUSH2 0x20 PUSH1 0x0 CODECOPY PUSH1 0x0 RETURN INVALID PUSH1 0x80 PUSH1 0x40 MSTORE PUSH1 0x4 CALLDATASIZE LT PUSH2 0x70 JUMPI PUSH1 0x0 CALLDATALOAD PUSH1 0xE0 SHR DUP1 PUSH4 0xDC1B5B3F GT PUSH2 0x4E JUMPI DUP1 PUSH4 0xDC1B5B3F EQ PUSH2 0xF4 JUMPI DUP1 PUSH4 0xECFB49A3 EQ PUSH2 0x10B JUMPI DUP1 PUSH4 0xF90F4560 EQ PUSH2 0x136 JUMPI DUP1 PUSH4 0xFE784EAA EQ PUSH2 0x140 JUMPI PUSH2 0x70 JUMP JUMPDEST DUP1 PUSH4 0x89A78F1A EQ PUSH2 0x75 JUMPI DUP1 PUSH4 0x9917FFA8 EQ PUSH2 0xB2 JUMPI DUP1 PUSH4 0xDB2E21BC EQ PUSH2 0xDD JUMPI JUMPDEST PUSH1 0x0 DUP1 REVERT JUMPDEST CALLVALUE DUP1 ISZERO PUSH2 0x81 JUMPI PUSH1 0x0 DUP1 REVERT JUMPDEST POP PUSH2 0x9C PUSH1 0x4 DUP1 CALLDATASIZE SUB DUP2 ADD SWAP1 PUSH2 0x97 SWAP2 SWAP1 PUSH2 0x42A JUMP JUMPDEST PUSH2 0x169 JUMP JUMPDEST PUSH1 0x40 MLOAD PUSH2 0xA9 SWAP2 SWAP1 PUSH2 0x470 JUMP JUMPDEST PUSH1 0x40 MLOAD DUP1 SWAP2 SUB SWAP1 RETURN JUMPDEST CALLVALUE DUP1 ISZERO PUSH2 0xBE JUMPI PUSH1 0x0 DUP1 REVERT JUMPDEST POP PUSH2 0xC7 PUSH2 0x181 JUMP JUMPDEST PUSH1 0x40 MLOAD PUSH2 0xD4 SWAP2 SWAP1 PUSH2 0x4A6 JUMP JUMPDEST PUSH1 0x40 MLOAD DUP1 SWAP2 SUB SWAP1 RETURN JUMPDEST CALLVALUE DUP1 ISZERO PUSH2 0xE9 JUMPI PUSH1 0x0 DUP1 REVERT JUMPDEST POP PUSH2 0xF2 PUSH2 0x194 JUMP JUMPDEST STOP JUMPDEST CALLVALUE DUP1 ISZERO PUSH2 0x100 JUMPI PUSH1 0x0 DUP1 REVERT JUMPDEST POP PUSH2 0x109 PUSH2 0x265 JUMP JUMPDEST STOP JUMPDEST CALLVALUE DUP1 ISZERO PUSH2 0x117 JUMPI PUSH1 0x0 DUP1 REVERT JUMPDEST POP PUSH2 0x120 PUSH2 0x282 JUMP JUMPDEST PUSH1 0x40 MLOAD PUSH2 0x12D SWAP2 SWAP1 PUSH2 0x470 JUMP JUMPDEST PUSH1 0x40 MLOAD DUP1 SWAP2 SUB SWAP1 RETURN JUMPDEST PUSH2 0x13E PUSH2 0x288 JUMP JUMPDEST STOP JUMPDEST CALLVALUE DUP1 ISZERO PUSH2 0x14C JUMPI PUSH1 0x0 DUP1 REVERT JUMPDEST POP PUSH2 0x167 PUSH1 0x4 DUP1 CALLDATASIZE SUB DUP2 ADD SWAP1 PUSH2 0x162 SWAP2 SWAP1 PUSH2 0x4ED JUMP JUMPDEST PUSH2 0x3C4 JUMP JUMPDEST STOP JUMPDEST PUSH1 0x0 PUSH1 0x20 MSTORE DUP1 PUSH1 0x0 MSTORE PUSH1 0x40 PUSH1 0x0 KECCAK256 PUSH1 0x0 SWAP2 POP SWAP1 POP SLOAD DUP2 JUMP JUMPDEST PUSH1 0x2 PUSH1 0x0 SWAP1 SLOAD SWAP1 PUSH2 0x100 EXP SWAP1 DIV PUSH1 0xFF AND DUP2 JUMP JUMPDEST PUSH1 0x0 DUP1 PUSH1 0x0 CALLER PUSH20 0xFFFFFFFFFFFFFFFFFFFFFFFFFFFFFFFFFFFFFFFF AND PUSH20 0xFFFFFFFFFFFFFFFFFFFFFFFFFFFFFFFFFFFFFFFF AND DUP2 MSTORE PUSH1 0x20 ADD SWAP1 DUP2 MSTORE PUSH1 0x20 ADD PUSH1 0x0 KECCAK256 SLOAD SWAP1 POP PUSH1 0x0 DUP1 PUSH1 0x0 CALLER PUSH20 0xFFFFFFFFFFFFFFFFFFFFFFFFFFFFFFFFFFFFFFFF AND PUSH20 0xFFFFFFFFFFFFFFFFFFFFFFFFFFFFFFFFFFFFFFFF AND DUP2 MSTORE PUSH1 0x20 ADD SWAP1 DUP2 MSTORE PUSH1 0x20 ADD PUSH1 0x0 KECCAK256 DUP2 SWAP1 SSTORE POP CALLER PUSH20 0xFFFFFFFFFFFFFFFFFFFFFFFFFFFFFFFFFFFFFFFF AND PUSH2 0x8FC DUP3 SWAP1 DUP2 ISZERO MUL SWAP1 PUSH1 0x40 MLOAD PUSH1 0x0 PUSH1 0x40 MLOAD DUP1 DUP4 SUB DUP2 DUP6 DUP9 DUP9 CALL SWAP4 POP POP POP POP ISZERO DUP1 ISZERO PUSH2 0x261 JUMPI RETURNDATASIZE PUSH1 0x0 DUP1 RETURNDATACOPY RETURNDATASIZE PUSH1 0x0 REVERT JUMPDEST POP POP JUMP JUMPDEST PUSH1 0x1 PUSH1 0x2 PUSH1 0x0 PUSH2 0x100 EXP DUP2 SLOAD DUP2 PUSH1 0xFF MUL NOT AND SWAP1 DUP4 ISZERO ISZERO MUL OR SWAP1 SSTORE POP JUMP JUMPDEST PUSH1 0x1 SLOAD DUP2 JUMP JUMPDEST PUSH1 0x2 PUSH1 0x0 SWAP1 SLOAD SWAP1 PUSH2 0x100 EXP SWAP1 DIV PUSH1 0xFF AND ISZERO PUSH2 0x2D8 JUMPI PUSH1 0x40 MLOAD PUSH32 0x8C379A000000000000000000000000000000000000000000000000000000000 DUP2 MSTORE PUSH1 0x4 ADD PUSH2 0x2CF SWAP1 PUSH2 0x577 JUMP JUMPDEST PUSH1 0x40 MLOAD DUP1 SWAP2 SUB SWAP1 REVERT JUMPDEST PUSH1 0x0 CALLVALUE GT PUSH2 0x31B JUMPI PUSH1 0x40 MLOAD PUSH32 0x8C379A000000000000000000000000000000000000000000000000000000000 DUP2 MSTORE PUSH1 0x4 ADD PUSH2 0x312 SWAP1 PUSH2 0x5E3 JUMP JUMPDEST PUSH1 0x40 MLOAD DUP1 SWAP2 SUB SWAP1 REVERT JUMPDEST CALLVALUE PUSH1 0x0 DUP1 CALLER PUSH20 0xFFFFFFFFFFFFFFFFFFFFFFFFFFFFFFFFFFFFFFFF AND PUSH20 0xFFFFFFFFFFFFFFFFFFFFFFFFFFFFFFFFFFFFFFFF AND DUP2 MSTORE PUSH1 0x20 ADD SWAP1 DUP2 MSTORE PUSH1 0x20 ADD PUSH1 0x0 KECCAK256 PUSH1 0x0 DUP3 DUP3 SLOAD PUSH2 0x369 SWAP2 SWAP1 PUSH2 0x632 JUMP JUMPDEST SWAP3 POP POP DUP2 SWAP1 SSTORE POP CALLVALUE PUSH1 0x1 PUSH1 0x0 DUP3 DUP3 SLOAD PUSH2 0x382 SWAP2 SWAP1 PUSH2 0x632 JUMP JUMPDEST SWAP3 POP POP DUP2 SWAP1 SSTORE POP PUSH32 0x43E08D78302CDF9C94E1FFD293C2A3696139EE41CF3199B6F5EED9C7F6CC6090 CALLER CALLVALUE PUSH1 0x40 MLOAD PUSH2 0x3BA SWAP3 SWAP2 SWAP1 PUSH2 0x675 JUMP JUMPDEST PUSH1 0x40 MLOAD DUP1 SWAP2 SUB SWAP1 LOG1 JUMP JUMPDEST POP JUMP JUMPDEST PUSH1 0x0 DUP1 REVERT JUMPDEST PUSH1 0x0 PUSH20 0xFFFFFFFFFFFFFFFFFFFFFFFFFFFFFFFFFFFFFFFF DUP3 AND SWAP1 POP SWAP2 SWAP1 POP JUMP JUMPDEST PUSH1 0x0 PUSH2 0x3F7 DUP3 PUSH2 0x3CC JUMP JUMPDEST SWAP1 POP SWAP2 SWAP1 POP JUMP JUMPDEST PUSH2 0x407 DUP2 PUSH2 0x3EC JUMP JUMPDEST DUP2 EQ PUSH2 0x412 JUMPI PUSH1 0x0 DUP1 REVERT JUMPDEST POP JUMP JUMPDEST PUSH1 0x0 DUP2 CALLDATALOAD SWAP1 POP PUSH2 0x424 DUP2 PUSH2 0x3FE JUMP JUMPDEST SWAP3 SWAP2 POP POP JUMP JUMPDEST PUSH1 0x0 PUSH1 0x20 DUP3 DUP5 SUB SLT ISZERO PUSH2 0x440 JUMPI PUSH2 0x43F PUSH2 0x3C7 JUMP JUMPDEST JUMPDEST PUSH1 0x0 PUSH2 0x44E DUP5 DUP3 DUP6 ADD PUSH2 0x415 JUMP JUMPDEST SWAP2 POP POP SWAP3 SWAP2 POP POP JUMP JUMPDEST PUSH1 0x0 DUP2 SWAP1 POP SWAP2 SWAP1 POP JUMP JUMPDEST PUSH2 0x46A DUP2 PUSH2 0x457 JUMP JUMPDEST DUP3 MSTORE POP POP JUMP JUMPDEST PUSH1 0x0 PUSH1 0x20 DUP3 ADD SWAP1 POP PUSH2 0x485 PUSH1 0x0 DUP4 ADD DUP5 PUSH2 0x461 JUMP JUMPDEST SWAP3 SWAP2 POP POP JUMP JUMPDEST PUSH1 0x0 DUP2 ISZERO ISZERO SWAP1 POP SWAP2 SWAP1 POP JUMP JUMPDEST PUSH2 0x4A0 DUP2 PUSH2 0x48B JUMP JUMPDEST DUP3 MSTORE POP POP JUMP JUMPDEST PUSH1 0x0 PUSH1 0x20 DUP3 ADD SWAP1 POP PUSH2 0x4BB PUSH1 0x0 DUP4 ADD DUP5 PUSH2 0x497 JUMP JUMPDEST SWAP3 SWAP2 POP POP JUMP JUMPDEST PUSH2 0x4CA DUP2 PUSH2 0x457 JUMP JUMPDEST DUP2 EQ PUSH2 0x4D5 JUMPI PUSH1 0x0 DUP1 REVERT JUMPDEST POP JUMP JUMPDEST PUSH1 0x0 DUP2 CALLDATALOAD SWAP1 POP PUSH2 0x4E7 DUP2 PUSH2 0x4C1 JUMP JUMPDEST SWAP3 SWAP2 POP POP JUMP JUMPDEST PUSH1 0x0 PUSH1 0x20 DUP3 DUP5 SUB SLT ISZERO PUSH2 0x503 JUMPI PUSH2 0x502 PUSH2 0x3C7 JUMP JUMPDEST JUMPDEST PUSH1 0x0 PUSH2 0x511 DUP5 DUP3 DUP6 ADD PUSH2 0x4D8 JUMP JUMPDEST SWAP2 POP POP SWAP3 SWAP2 POP POP JUMP JUMPDEST PUSH1 0x0 DUP3 DUP3 MSTORE PUSH1 0x20 DUP3 ADD SWAP1 POP SWAP3 SWAP2 POP POP JUMP JUMPDEST PUSH32 0x526163652066696E697368656400000000000000000000000000000000000000 PUSH1 0x0 DUP3 ADD MSTORE POP JUMP JUMPDEST PUSH1 0x0 PUSH2 0x561 PUSH1 0xD DUP4 PUSH2 0x51A JUMP JUMPDEST SWAP2 POP PUSH2 0x56C DUP3 PUSH2 0x52B JUMP JUMPDEST PUSH1 0x20 DUP3 ADD SWAP1 POP SWAP2 SWAP1 POP JUMP JUMPDEST PUSH1 0x0 PUSH1 0x20 DUP3 ADD SWAP1 POP DUP2 DUP2 SUB PUSH1 0x0 DUP4 ADD MSTORE PUSH2 0x590 DUP2 PUSH2 0x554 JUMP JUMPDEST SWAP1 POP SWAP2 SWAP1 POP JUMP JUMPDEST PUSH32 0x4E65656420746F2062657420736F6D657468696E670000000000000000000000 PUSH1 0x0 DUP3 ADD MSTORE POP JUMP JUMPDEST PUSH1 0x0 PUSH2 0x5CD PUSH1 0x15 DUP4 PUSH2 0x51A JUMP JUMPDEST SWAP2 POP PUSH2 0x5D8 DUP3 PUSH2 0x597 JUMP JUMPDEST PUSH1 0x20 DUP3 ADD SWAP1 POP SWAP2 SWAP1 POP JUMP JUMPDEST PUSH1 0x0 PUSH1 0x20 DUP3 ADD SWAP1 POP DUP2 DUP2 SUB PUSH1 0x0 DUP4 ADD MSTORE PUSH2 0x5FC DUP2 PUSH2 0x5C0 JUMP JUMPDEST SWAP1 POP SWAP2 SWAP1 POP JUMP JUMPDEST PUSH32 0x4E487B7100000000000000000000000000000000000000000000000000000000 PUSH1 0x0 MSTORE PUSH1 0x11 PUSH1 0x4 MSTORE PUSH1 0x24 PUSH1 0x0 REVERT JUMPDEST PUSH1 0x0 PUSH2 0x63D DUP3 PUSH2 0x457 JUMP JUMPDEST SWAP2 POP PUSH2 0x648 DUP4 PUSH2 0x457 JUMP JUMPDEST SWAP3 POP DUP3 DUP3 ADD SWAP1 POP DUP1 DUP3 GT ISZERO PUSH2 0x660 JUMPI PUSH2 0x65F PUSH2 0x603 JUMP JUMPDEST JUMPDEST SWAP3 SWAP2 POP POP JUMP JUMPDEST PUSH2 0x66F DUP2 PUSH2 0x3EC JUMP JUMPDEST DUP3 MSTORE POP POP JUMP JUMPDEST PUSH1 0x0 PUSH1 0x40 DUP3 ADD SWAP1 POP PUSH2 0x68A PUSH1 0x0 DUP4 ADD DUP6 PUSH2 0x666 JUMP JUMPDEST PUSH2 0x697 PUSH1 0x20 DUP4 ADD DUP5 PUSH2 0x461 JUMP JUMPDEST SWAP4 SWAP3 POP POP POP JUMP INVALID LOG2 PUSH5 0x6970667358 0x22 SLT KECCAK256 0xA8 DUP1 DUP14 LOG0 0x2D PUSH8 0x911DD289581E0348 CODESIZE BYTE SAR SWAP11 PUSH3 0x1D7956 0xCA 0xE5 0xC3 0xCB 0xD7 0xDA DUP1 GT 0x5F MLOAD PUSH5 0x736F6C6343 STOP ADDMOD SGT STOP CALLER "},"methodIdentifiers":{"bets(address)":"89a78f1a","emergencyWithdraw()":"db2e21bc","finishRace()":"dc1b5b3f","placeBet()":"f90f4560","raceFinished()":"9917ffa8","swapTokens(uint256)":"fe784eaa","totalPool()":"ecfb49a3"}}}}}