{
  "_format": "hh-sol-artifact-1",
  "contractName": "F1PredictionSecure",
  "sourceName": "contracts/F1PredictionSecure.sol",
  "abi": [
    {
      "inputs": [],
      "stateMutability": "nonpayable",
      "type": "constructor"
    },
    {
      "anonymous": false,
      "inputs": [
        {
          "indexed": false,
          "internalType": "address",
          "name": "better",
          "type": "address"
        },
        {
          "indexed": false,
          "internalType": "uint256",
          "name": "amount",
          "type": "uint256"
        }
      ],
      "name": "BetPlaced",
      "type": "event"
    },
    {
      "anonymous": false,
      "inputs": [
        {
          "indexed": false,
          "internalType": "address",
          "name": "user",
          "type": "address"
        },
        {
          "indexed": false,
          "internalType": "string",
          "name": "protection",
          "type": "string"
        }
      ],
      "name": "MEVProtected",
      "type": "event"
    },
    {
      "inputs": [],
      "name": "MAX_BET",
      "outputs": [
        {
          "internalType": "uint256",
          "name": "",
          "type": "uint256"
        }
      ],
      "stateMutability": "view",
      "type": "function"
    },
    {
      "inputs": [],
      "name": "MIN_GAS_PRICE",
      "outputs": [
        {
          "internalType": "uint256",
          "name": "",
          "type": "uint256"
        }
      ],
      "stateMutability": "view",
      "type": "function"
    },
    {
      "inputs": [
        {
          "internalType": "address",
          "name": "",
          "type": "address"
        }
      ],
      "name": "bets",
      "outputs": [
        {
          "internalType": "uint256",
          "name": "",
          "type": "uint256"
        }
      ],
      "stateMutability": "view",
      "type": "function"
    },
    {
      "inputs": [],
      "name": "emergencyWithdraw",
      "outputs": [],
      "stateMutability": "nonpayable",
      "type": "function"
    },
    {
      "inputs": [],
      "name": "finishRace",
      "outputs": [],
      "stateMutability": "nonpayable",
      "type": "function"
    },
    {
      "inputs": [],
      "name": "owner",
      "outputs": [
        {
          "internalType": "address",
          "name": "",
          "type": "address"
        }
      ],
      "stateMutability": "view",
      "type": "function"
    },
    {
      "inputs": [],
      "name": "placeBet",
      "outputs": [],
      "stateMutability": "payable",
      "type": "function"
    },
    {
      "inputs": [],
      "name": "raceFinished",
      "outputs": [
        {
          "internalType": "bool",
          "name": "",
          "type": "bool"
        }
      ],
      "stateMutability": "view",
      "type": "function"
    },
    {
      "inputs": [
        {
          "internalType": "uint256",
          "name": "amountOutMin",
          "type": "uint256"
        },
        {
          "internalType": "uint256",
          "name": "deadline",
          "type": "uint256"
        }
      ],
      "name": "swapTokens",
      "outputs": [],
      "stateMutability": "nonpayable",
      "type": "function"
    },
    {
      "inputs": [],
      "name": "totalPool",
      "outputs": [
        {
          "internalType": "uint256",
          "name": "",
          "type": "uint256"
        }
      ],
      "stateMutability": "view",
      "type": "function"
    }
  ],
  "bytecode": "0x608060405234801561001057600080fd5b5033600260016101000a81548173ffffffffffffffffffffffffffffffffffffffff021916908373ffffffffffffffffffffffffffffffffffffffff160217905550610edf806100616000396000f3fe6080604052600436106100915760003560e01c80639917ffa8116100595780639917ffa81461017d578063db2e21bc146101a8578063dc1b5b3f146101bf578063ecfb49a3146101d6578063f90f45601461020157610091565b80636e25128e146100965780637e95b523146100c157806388ab076f146100ec57806389a78f1a146101155780638da5cb5b14610152575b600080fd5b3480156100a257600080fd5b506100ab61020b565b6040516100b891906107d5565b60405180910390f35b3480156100cd57600080fd5b506100d6610214565b6040516100e391906107d5565b60405180910390f35b3480156100f857600080fd5b50610113600480360381019061010e9190610821565b610220565b005b34801561012157600080fd5b5061013c600480360381019061013791906108bf565b6102b0565b60405161014991906107d5565b60405180910390f35b34801561015e57600080fd5b506101676102c8565b60405161017491906108fb565b60405180910390f35b34801561018957600080fd5b506101926102ee565b60405161019f9190610931565b60405180910390f35b3480156101b457600080fd5b506101bd610301565b005b3480156101cb57600080fd5b506101d46104e4565b005b3480156101e257600080fd5b506101eb610591565b6040516101f891906107d5565b60405180910390f35b610209610597565b005b6402540be40081565b670de0b6b3a764000081565b80421115610263576040517f08c379a000000000000000000000000000000000000000000000000000000000815260040161025a906109a9565b60405180910390fd5b61026b6107ac565b82116102ac576040517f08c379a00000000000000000000000000000000000000000000000000000000081526004016102a390610a15565b60405180910390fd5b5050565b60006020528060005260406000206000915090505481565b600260019054906101000a900473ffffffffffffffffffffffffffffffffffffffff1681565b600260009054906101000a900460ff1681565b600260009054906101000a900460ff1615610351576040517f08c379a000000000000000000000000000000000000000000000000000000000815260040161034890610a81565b60405180910390fd5b60008060003373ffffffffffffffffffffffffffffffffffffffff1673ffffffffffffffffffffffffffffffffffffffff168152602001908152602001600020549050600081116103d7576040517f08c379a00000000000000000000000000000000000000000000000000000000081526004016103ce90610aed565b60405180910390fd5b60008060003373ffffffffffffffffffffffffffffffffffffffff1673ffffffffffffffffffffffffffffffffffffffff16815260200190815260200160002081905550806001600082825461042d9190610b3c565b9250508190555060003373ffffffffffffffffffffffffffffffffffffffff168260405161045a90610ba1565b60006040518083038185875af1925050503d8060008114610497576040519150601f19603f3d011682016040523d82523d6000602084013e61049c565b606091505b50509050806104e0576040517f08c379a00000000000000000000000000000000000000000000000000000000081526004016104d790610c02565b60405180910390fd5b5050565b600260019054906101000a900473ffffffffffffffffffffffffffffffffffffffff1673ffffffffffffffffffffffffffffffffffffffff163373ffffffffffffffffffffffffffffffffffffffff1614610574576040517f08c379a000000000000000000000000000000000000000000000000000000000815260040161056b90610c6e565b60405180910390fd5b6001600260006101000a81548160ff021916908315150217905550565b60015481565b600260009054906101000a900460ff16156105e7576040517f08c379a00000000000000000000000000000000000000000000000000000000081526004016105de90610a81565b60405180910390fd5b6000341180156105ff5750670de0b6b3a76400003411155b61063e576040517f08c379a000000000000000000000000000000000000000000000000000000000815260040161063590610cda565b60405180910390fd5b6402540be4003a1015610686576040517f08c379a000000000000000000000000000000000000000000000000000000000815260040161067d90610d46565b60405180910390fd5b620186a05a10156106cc576040517f08c379a00000000000000000000000000000000000000000000000000000000081526004016106c390610db2565b60405180910390fd5b346000803373ffffffffffffffffffffffffffffffffffffffff1673ffffffffffffffffffffffffffffffffffffffff168152602001908152602001600020600082825461071a9190610dd2565b9250508190555034600160008282546107339190610dd2565b925050819055507f43e08d78302cdf9c94e1ffd293c2a3696139ee41cf3199b6f5eed9c7f6cc6090333460405161076b929190610e06565b60405180910390a17f35fded969d8262e8adc0f90ea8f235e762a40eca8d6eb81ce44c5720fcbb5252336040516107a29190610e7b565b60405180910390a1565b6000670de0b6b3a7640000905090565b6000819050919050565b6107cf816107bc565b82525050565b60006020820190506107ea60008301846107c6565b92915050565b600080fd5b6107fe816107bc565b811461080957600080fd5b50565b60008135905061081b816107f5565b92915050565b60008060408385031215610838576108376107f0565b5b60006108468582860161080c565b92505060206108578582860161080c565b9150509250929050565b600073ffffffffffffffffffffffffffffffffffffffff82169050919050565b600061088c82610861565b9050919050565b61089c81610881565b81146108a757600080fd5b50565b6000813590506108b981610893565b92915050565b6000602082840312156108d5576108d46107f0565b5b60006108e3848285016108aa565b91505092915050565b6108f581610881565b82525050565b600060208201905061091060008301846108ec565b92915050565b60008115159050919050565b61092b81610916565b82525050565b60006020820190506109466000830184610922565b92915050565b600082825260208201905092915050565b7f4578706972656400000000000000000000000000000000000000000000000000600082015250565b600061099360078361094c565b915061099e8261095d565b602082019050919050565b600060208201905081810360008301526109c281610986565b9050919050565b7f536c69707061676520746f6f2068696768000000000000000000000000000000600082015250565b60006109ff60118361094c565b9150610a0a826109c9565b602082019050919050565b60006020820190508181036000830152610a2e816109f2565b9050919050565b7f526163652066696e697368656400000000000000000000000000000000000000600082015250565b6000610a6b600d8361094c565b9150610a7682610a35565b602082019050919050565b60006020820190508181036000830152610a9a81610a5e565b9050919050565b7f4e6f2066756e6473000000000000000000000000000000000000000000000000600082015250565b6000610ad760088361094c565b9150610ae282610aa1565b602082019050919050565b60006020820190508181036000830152610b0681610aca565b9050919050565b7f4e487b7100000000000000000000000000000000000000000000000000000000600052601160045260246000fd5b6000610b47826107bc565b9150610b52836107bc565b9250828203905081811115610b6a57610b69610b0d565b5b92915050565b600081905092915050565b50565b6000610b8b600083610b70565b9150610b9682610b7b565b600082019050919050565b6000610bac82610b7e565b9150819050919050565b7f5472616e73666572206661696c65640000000000000000000000000000000000600082015250565b6000610bec600f8361094c565b9150610bf782610bb6565b602082019050919050565b60006020820190508181036000830152610c1b81610bdf565b9050919050565b7f4e6f74206f776e65720000000000000000000000000000000000000000000000600082015250565b6000610c5860098361094c565b9150610c6382610c22565b602082019050919050565b60006020820190508181036000830152610c8781610c4b565b9050919050565b7f496e76616c696420626574000000000000000000000000000000000000000000600082015250565b6000610cc4600b8361094c565b9150610ccf82610c8e565b602082019050919050565b60006020820190508181036000830152610cf381610cb7565b9050919050565b7f537573706963696f757320676173000000000000000000000000000000000000600082015250565b6000610d30600e8361094c565b9150610d3b82610cfa565b602082019050919050565b60006020820190508181036000830152610d5f81610d23565b9050919050565b7f506f74656e7469616c204d45562061747461636b000000000000000000000000600082015250565b6000610d9c60148361094c565b9150610da782610d66565b602082019050919050565b60006020820190508181036000830152610dcb81610d8f565b9050919050565b6000610ddd826107bc565b9150610de8836107bc565b9250828201905080821115610e0057610dff610b0d565b5b92915050565b6000604082019050610e1b60008301856108ec565b610e2860208301846107c6565b9392505050565b7f476173206c696d69747320616e6420616d6f756e7420636865636b7300000000600082015250565b6000610e65601c8361094c565b9150610e7082610e2f565b602082019050919050565b6000604082019050610e9060008301846108ec565b8181036020830152610ea181610e58565b90509291505056fea26469706673582212208b82dcdb9d9f0d10d57f649907bf651899a63706f64d11b6cd911143b0ccb0d464736f6c63430008130033",
  "linkReferences": {},
  "deployedLinkReferences": {}
}