{
  "_format": "hh-sol-artifact-1",
  "contractName": "F1PredictionVulnerable",
  "sourceName": "contracts/F1PredictionVulnerable.sol",
  "abi": [
    {
      "anonymous": false,
      "inputs": [
        {
          "indexed": false,
          "internalType": "address",
          "name": "better",
          "type": "address"
        },
        {
          "indexed": false,
          "internalType": "uint256",
          "name": "amount",
          "type": "uint256"
        }
      ],
      "name": "BetPlaced",
      "type": "event"
    },
    {
      "inputs": [
        {
          "internalType": "address",
          "name": "",
          "type": "address"
        }
      ],
      "name": "bets",
      "outputs": [
        {
          "internalType": "uint256",
          "name": "",
          "type": "uint256"
        }
      ],
      "stateMutability": "view",
      "type": "function"
    },
    {
      "inputs": [],
      "name": "emergencyWithdraw",
      "outputs": [],
      "stateMutability": "nonpayable",
      "type": "function"
    },
    {
      "inputs": [],
      "name": "finishRace",
      "outputs": [],
      "stateMutability": "nonpayable",
      "type": "function"
    },
    {
      "inputs": [],
      "name": "placeBet",
      "outputs": [],
      "stateMutability": "payable",
      "type": "function"
    },
    {
      "inputs": [],
      "name": "raceFinished",
      "outputs": [
        {
          "internalType": "bool",
          "name": "",
          "type": "bool"
        }
      ],
      "stateMutability": "view",
      "type": "function"
    },
    {
      "inputs": [
        {
          "internalType": "uint256",
          "name": "amountOutMin",
          "type": "uint256"
        }
      ],
      "name": "swapTokens",
      "outputs": [],
      "stateMutability": "nonpayable",
      "type": "function"
    },
    {
      "inputs": [],
      "name": "totalPool",
      "outputs": [
        {
          "internalType": "uint256",
          "name": "",
          "type": "uint256"
        }
      ],
      "stateMutability": "view",
      "type": "function"
    }
  ],
  "bytecode": "0x608060405234801561001057600080fd5b506106d4806100206000396000f3fe6080604052600436106100705760003560e01c8063dc1b5b3f1161004e578063dc1b5b3f146100f4578063ecfb49a31461010b578063f90f456014610136578063fe784eaa1461014057610070565b806389a78f1a146100755780639917ffa8146100b2578063db2e21bc146100dd575b600080fd5b34801561008157600080fd5b5061009c6004803603810190610097919061042a565b610169565b6040516100a99190610470565b60405180910390f35b3480156100be57600080fd5b506100c7610181565b6040516100d491906104a6565b60405180910390f35b3480156100e957600080fd5b506100f2610194565b005b34801561010057600080fd5b50610109610265565b005b34801561011757600080fd5b50610120610282565b60405161012d9190610470565b60405180910390f35b61013e610288565b005b34801561014c57600080fd5b50610167600480360381019061016291906104ed565b6103c4565b005b60006020528060005260406000206000915090505481565b600260009054906101000a900460ff1681565b60008060003373ffffffffffffffffffffffffffffffffffffffff1673ffffffffffffffffffffffffffffffffffffffff16815260200190815260200160002054905060008060003373ffffffffffffffffffffffffffffffffffffffff1673ffffffffffffffffffffffffffffffffffffffff168152602001908152602001600020819055503373ffffffffffffffffffffffffffffffffffffffff166108fc829081150290604051600060405180830381858888f19350505050158015610261573d6000803e3d6000fd5b5050565b6001600260006101000a81548160ff021916908315150217905550565b60015481565b600260009054906101000a900460ff16156102d8576040517f08c379a00000000000000000000000000000000000000000000000000000000081526004016102cf90610577565b60405180910390fd5b6000341161031b576040517f08c379a0000000000000000000000000000000000000000000000000000000008152600401610312906105e3565b60405180910390fd5b346000803373ffffffffffffffffffffffffffffffffffffffff1673ffffffffffffffffffffffffffffffffffffffff16815260200190815260200160002060008282546103699190610632565b9250508190555034600160008282546103829190610632565b925050819055507f43e08d78302cdf9c94e1ffd293c2a3696139ee41cf3199b6f5eed9c7f6cc609033346040516103ba929190610675565b60405180910390a1565b50565b600080fd5b600073ffffffffffffffffffffffffffffffffffffffff82169050919050565b60006103f7826103cc565b9050919050565b610407816103ec565b811461041257600080fd5b50565b600081359050610424816103fe565b92915050565b6000602082840312156104405761043f6103c7565b5b600061044e84828501610415565b91505092915050565b6000819050919050565b61046a81610457565b82525050565b60006020820190506104856000830184610461565b92915050565b60008115159050919050565b6104a08161048b565b82525050565b60006020820190506104bb6000830184610497565b92915050565b6104ca81610457565b81146104d557600080fd5b50565b6000813590506104e7816104c1565b92915050565b600060208284031215610503576105026103c7565b5b6000610511848285016104d8565b91505092915050565b600082825260208201905092915050565b7f526163652066696e697368656400000000000000000000000000000000000000600082015250565b6000610561600d8361051a565b915061056c8261052b565b602082019050919050565b6000602082019050818103600083015261059081610554565b9050919050565b7f4e65656420746f2062657420736f6d657468696e670000000000000000000000600082015250565b60006105cd60158361051a565b91506105d882610597565b602082019050919050565b600060208201905081810360008301526105fc816105c0565b9050919050565b7f4e487b7100000000000000000000000000000000000000000000000000000000600052601160045260246000fd5b600061063d82610457565b915061064883610457565b92508282019050808211156106605761065f610603565b5b92915050565b61066f816103ec565b82525050565b600060408201905061068a6000830185610666565b6106976020830184610461565b939250505056fea2646970667358221220a8808da02d67911dd289581e0348381a1d9a621d7956cae5c3cbd7da80115f5164736f6c63430008130033",
  "linkReferences": {},
  "deployedLinkReferences": {}
}